:020000040000FA
:0400000080312628FD
:100008007E1480310B1E09280A2812288B1C0D2803
:100018000E28122881311E21803124280B1F152813
:10002800162824282100911C1A281B28242820007F
:10003800911C1F2820282428813118218031242848
:100048007E10090080312828F001F101F201F30146
:10005800F401F501F601F7012000A401A5017E10C5
:1000680020008031B0280130F4070030F53D013020
:10007800F2070030F33D093074067504031D452866
:100088004628492822008E168C150C3074067504F3
:10009800031D4F285028532822008E128C11193026
:1000A80074067504031D59285A285C2822000F1469
:1000B8001E3074067504031D622863286A2822000E
:1000C8000F10813127218031F401F501200020082B
:1000D8002104031970287128762821088A0020082D
:1000E8000A0080310800FB01FC0186280630FA006E
:1000F8003030890B7D28FA0B7D2800320130FB0750
:100108000030FC3D7C08803AFA007908803A7A028F
:10011800031D902878087B02031C932894287A28CA
:100128000800220090018F018C018D018E012100B1
:1001380090018C0101308D0008308E008F01230062
:100148008F018D0190018C01240090018D01210007
:10015800951722009D0108008031D92080312200A6
:100168008E120E138C110F108B170B1740302200B4
:100178008E062C30F8000130F9008031772080316C
:10018800BA2880312628233020009B009A0191103C
:10019800210091142D30F8000130F90081310C2133
:1001A80080316D3020009C0008008031952080311E
:1001B8008131052180318131232180318031C7206F
:1001C80080318031F9208031080081312A21803145
:1001D8002000220823040319F228F328F82823080A
:1001E8008A0022080A00803108008B1021001517A8
:1001F8002E30F8000130F9008131122180310B16C0
:1002080008007A3021009900980122009601080020
:1002180079082000A1007808A000080079082000CB
:10022800A3007808A2000800200091108031372030
:10023800813108008B108031E920813108001630A7
:1002480021009700080020001C11080020001C1540
:0602580008000800080088
:020000040001F9
:04000E00E4C9FFDE64
:00000001FF
